:040000008A11112828
:10000800FE00030E83120313C9000408CA000A087D
:10001800CB007F08CC008A1168298A111328831322
:100028002030840049308A119F238A11B330FD00A3
:100038000330FE003530FF00A03084008A115F23B2
:100048008A118A11A723ED0083018A11052B8312D7
:100058000313280803190800A801A9011D30D900B5
:100068000030DA002C308A110E228A118312031311
:100078005A08EB005908EA00FF306A05E30000302F
:100088006B05E4004608E500E60164086606031D02
:100098004F2863086506031D08006B08E4006A081A
:1000A800E3006408E300E4014708E500E6016408AA
:1000B8006606031D612863086506031D08003D08E0
:1000C800E3006308E9008A1194238A11D8280815E7
:1000D8004308E300E4014408E500E6016508E6009A
:1000E800E50163086504E70064086604E8000800A1
:1000F800061488154308E300E4014408E500E60116
:100108006508E600E50163086504E700640866041D
:10011800E8000800861488154308E300E401440851
:10012800E500E6016508E600E50163086504E70007
:1001380064086604E8000800061588154308E3000B
:10014800E4014408E500E6016508E600E501630806
:100158006504E70064086604E80008008615881549
:100168004308E300E4014408E500E6016508E60009
:10017800E50163086504E70064086604E800080010
:10018800061688154308E300E4014408E500E60183
:100198006508E600E50163086504E700640866048D
:1001A800E800080086160800831203136908003A5D
:1001B80003196B28013A03197C28033A03198E287E
:1001C800073A0319A028033A0319B228013A031978
:1001D800C428D628080083160313071083120313B4
:1001E80007108316031387108312031387108316CF
:1001F800031308118312031308118316031306103F
:100208008312031306108316031386108312031335
:10021800861083160313061183120313061183161F
:100228000313861183120313861183160313061210
:100238008312031306128316031388118312031300
:1002480088118316031386128312031386128711EB
:10025800831603138711831203138712831603135C
:1002680087128312031305148316031305108312D0
:10027800031305158316031305118910831203133D
:1002880089108316031309118312031309118316A6
:10029800031387128312031387128316031387111C
:1002A8008312031387118316031305108312031394
:1002B800051483160313851283120313851606305B
:1002C800831603139F0008000C1CBF290C109930DB
:1002D8008E00F1308F000130A6070318A70A0030FE
:1002E800A7072708803AFF0083307F02031D7E2975
:1002F800E8302602031C862983120313A601A701EE
:10030800AB01AB0A831203132A080319962901309B
:10031800AA02031D9629A801A80A0130A4000030EA
:10032800A500A901220823040319B1290130A2025A
:100338000030031CA303A30222082304031DB129D0
:1003480087100710240825040319B129A401A50161
:1003580007146430A0000030A1002008210403190C
:10036800BF290130A0020030031CA103A10220080C
:100378002104031907104C08FF004B088A004A089B
:100388008400490E8300FE0E7E0E090083120313BB
:10039800CD01CE016400831203132B080319CE2963
:1003A8008A1194238A1183120313AB01EB29881550
:1003B800FC290614FC298614FC290615FC29861537
:1003C800FC290616FC290815FC298616FC294E0866
:1003D800003A0319F029FC294D088400083004026A
:1003E8000318FC2903308A000310040D6B3E8200B9
:1003F8000130CD070318CE0A0030CE074E08803AE8
:10040800FF0080307F02031D0B2A09304D020318BC
:100418000800CE2983120313DE00FF30DF00FF300F
:10042800E000E101E2015908FD3EDB005A0803182B
:10043800013EFF3EDC006208803ADD005C08803A3D
:100448005D02031D292A5B08610203184B2A8312E7
:1004580003136008CE005F08CD0061085E07DB006B
:100468005B08840083130008DC005C08CF008A1155
:1004780093228A11831203134E08E0004D08DF000F
:100488000130E1070318E20A0030E207172A831255
:1004980003136008DA005F08D90008008312031309
:1004A800981C6A2A831203131A08CD004D08CE003F
:1004B8001A08CD004D08CE001A08CD004D08CE0010
:1004C80018120000831203131816522A181D772ACF
:1004D8001A08CD004D08CE008316031398120000A9
:1004E80083160313981683128C1E08001A08CD0071
:1004F8004D08CE001D302902031808004E08CD0013
:1005080029082C3E84004D08831380000130CD005B
:100518004D08A9073230CD004D08AA000800831203
:100528000313D80108305802031808004F0801398E
:10053800D000D10101304D05D20000304E05D30066
:1005480050085206D40051085306D50054085504E3
:100558000319B32A0830D6008430D700B52AD6014B
:10056800D7014E08D1004D08D0000310D10CD00C93
:100578005008CD005108CE005608CD065708CE06C3
:100588004F08D0000310500CD1005108CF000130A3
:10059800D0005008D807962A83120313A901CE0168
:1005A800CF014F08803AFF0080307F02031DDE2A0A
:1005B80013304E020318FD2A831203134E08A03E7F
:1005C8008400831300088A1188238A11013083125A
:1005D8000313CE070318CF0A0030CF074F08803A1D
:1005E800FF0080307F02031DFB2A13304E02031CDC
:1005F800E02A8312031387146430A2000030A3009A
:1006080008008316031381150114811401158A113A
:10061800EF208A118A1148238A118A117B238A11B3
:1006280083120313891C1B2B8A11CA218A116400A7
:100638008A1152228A118A112B208A1183120313DC
:100648002B0803191B2BAB010130EC006C08ED07DC
:1006580003306D02031C1B2BED018A11D0228A1175
:100668001B2B01341034013410340134F0340734B6
:1006780002342F34103402348634033459340234AB
:10068800033418347E340434013083120313900089
:1006980099308E00F1308F00831603130C140B175A
:1006A8008B178312031310141012901208007E087F
:1006B8008A007F0882005B238A118000840A04086C
:1006C8007D0603190034FF0A0319FE0A5F2B8A11FD
:1006D800DB298A11DD298A11DF298A11E1298A118A
:1006E800E3298A11E5298A11E7298A11E92983165C
:1006F80003131815981683120313981718162F301A
:10070800831603139900080083120313CD00831680
:100718000313981C8B2B831203134D0899000800B0
:10072800831203138811061086100611861106120B
:1007380008118612080064008001840A040603195F
:0807480000340406A02B3A3432
:02400E0076FF3B
:00000001FF
