:040000008A11112828
:10000800FE00030E83120313C9000408CA000A087D
:10001800CB007F08CC008A1168298A111328831322
:100028002030840049308A1188238A11B330FD00BA
:100038000330FE001E30FF00A03084008A114823E0
:100048008A118A119023ED0083018A11C22A831232
:100058000313280803190800A801A9011D30D900B5
:100068000030DA002C308A110D228A118312031312
:100078005A08EB005908EA00FF306A05E30000302F
:100088006B05E4004608E500E60164086606031D02
:100098004F2863086506031D08006B08E4006A081A
:1000A800E3006408E300E4014708E500E6016408AA
:1000B8006606031D612863086506031D08003D08E0
:1000C800E3006308E9008A117D238A11D8280815FE
:1000D8004308E300E4014408E500E6016508E6009A
:1000E800E50163086504E70064086604E8000800A1
:1000F800061488154308E300E4014408E500E60116
:100108006508E600E50163086504E700640866041D
:10011800E8000800861488154308E300E401440851
:10012800E500E6016508E600E50163086504E70007
:1001380064086604E8000800061588154308E3000B
:10014800E4014408E500E6016508E600E501630806
:100158006504E70064086604E80008008615881549
:100168004308E300E4014408E500E6016508E60009
:10017800E50163086504E70064086604E800080010
:10018800061688154308E300E4014408E500E60183
:100198006508E600E50163086504E700640866048D
:1001A800E800080086160800831203136908003A5D
:1001B80003196B28013A03197C28033A03198E287E
:1001C800073A0319A028033A0319B228013A031978
:1001D800C428D628080083160313071083120313B4
:1001E80007108316031387108312031387108316CF
:1001F800031308118312031308118316031306103F
:100208008312031306108316031386108312031335
:10021800861083160313061183120313061183161F
:100228000313861183120313861183160313061210
:100238008312031306128316031388118312031300
:1002480088118316031386128312031386128711EB
:10025800831603138711831203138712831603135C
:1002680087128312031305148316031305108312D0
:10027800031305158316031305118910831203133D
:1002880089108316031309118312031309118316A6
:10029800031387128312031387128316031387111C
:1002A8008312031387118316031305108312031394
:1002B800051483160313851283120313851606305B
:1002C800831603139F0008000C1CBE290C109930DC
:1002D8008E00F1308F000130A6070318A70A0030FE
:1002E800A7072708803AFF0083307F02031D7E2975
:1002F800E8302602031C862983120313A601A701EE
:10030800AB01AB0A831203132A080319952901309C
:10031800AA02031D9529A801A80A0130A4000030EB
:10032800A500220823040319B0290130A2020030D5
:10033800031CA303A30222082304031DB02987106A
:100348000710240825040319B029A401A5010714DE
:100358006430A0000030A100200821040319BE2940
:100368000130A0020030031CA103A10220082104CF
:10037800031907104C08FF004B088A004A0884003C
:10038800490E8300FE0E7E0E090083120313CD0171
:10039800CE016400831203132B080319CD298A1197
:1003A8007D238A1183120313AB01EA298815FB29DF
:1003B8000614FB298614FB290615FB298615FB293B
:1003C8000616FB290815FB298616FB294E08003A54
:1003D8000319EF29FB294D0884000830040203188B
:1003E800FB2903308A000310040D543E82000130BB
:1003F800CD070318CE0A0030CE074E08803AFF001A
:1004080080307F02031D0A2A09304D0203180800B4
:10041800CD2983120313DE00FF30DF00FF30E00038
:10042800E101E2015908FD3EDB005A080318013ECC
:10043800FF3EDC006208803ADD005C08803A5D021D
:10044800031D282A5B08610203184A2A8312031332
:100458006008CE005F08CD0061085E07DB005B081E
:10046800840083130008DC005C08CF008A11512245
:100478008A11831203134E08E0004D08DF00013093
:10048800E1070318E20A0030E207162A8312031371
:100498006008DA005F08D900080083120313D80146
:1004A80008305802031808004F080139D000D1015C
:1004B80001304D05D20000304E05D30050085206D9
:1004C800D40051085306D500540855040319712A5D
:1004D8000830D6008430D700732AD601D7014E08D9
:1004E800D1004D08D0000310D10CD00C5008CD001D
:1004F8005108CE005608CD065708CE064F08D00042
:100508000310500CD1005108CF000130D000500822
:10051800D807542A83120313CE01CF014F08803A1B
:10052800FF0080307F02031D9B2A13304E02031800
:10053800BA2A831203134E08A03E840083130008CE
:100548008A1171238A11013083120313CE0703180D
:10055800CF0A0030CF074F08803AFF0080307F0273
:10056800031DB82A13304E02031C9D2A831203135D
:1005780087146430A2000030A30008008316031318
:10058800811501118A11EF208A118A1131238A11EC
:100598008A1164238A1183120313891CD62A8A11AB
:1005A800C9218A11831203130919D92A64008A11EF
:1005B800F4228A118A112B208A11831203132B0823
:1005C8000319DA2AAB010130EC006C08ED0703309F
:1005D8006D02031CDA2AED018A118E228A11DA2AA9
:1005E800831203131819FA2A981C032B1A08CD0032
:1005F8004D08CE00181200008312031318168C1E23
:1006080008001A08CD004D08CE001D302902031835
:1006180008004E08CD0029082C3E84004D0883139D
:1006280080000130CD004D08A9073230CD004D08BB
:10063800AA00080001341034013410340134F034B5
:10064800073402342F3410340234863403345934D6
:100658000234033418347E34043401308312031313
:10066800900099308E00F1308F00831603130C141C
:100678000B178B1783120313101410129012080013
:100688007E088A007F08820044238A118000840A39
:1006980004087D0603190034FF0A0319FE0A482BD3
:1006A8008A11DA298A11DC298A11DE298A11E029BE
:1006B8008A11E2298A11E4298A11E6298A11E8298E
:1006C8008316031318159816831203139817181610
:1006D8002F30831603139900080083120313CD00EB
:1006E80083160313981C742B831203134D08990067
:1006F800080083120313881106108610061186114C
:10070800061208118612080064008001840A040693
:0A071800031900340406892B3A345B
:02400E0076FF3B
:00000001FF
